{
  "contractName": "ArtRegisterations",
  "abi": [
    {
      "constant": true,
      "inputs": [],
      "name": "owner",
      "outputs": [
        {
          "name": "",
          "type": "address"
        }
      ],
      "payable": false,
      "stateMutability": "view",
      "type": "function",
      "signature": "0x8da5cb5b"
    },
    {
      "constant": true,
      "inputs": [
        {
          "name": "",
          "type": "uint256"
        }
      ],
      "name": "ArtRegisterationList",
      "outputs": [
        {
          "name": "ArtCount",
          "type": "uint256"
        },
        {
          "name": "owner",
          "type": "address"
        },
        {
          "name": "ArtName",
          "type": "string"
        },
        {
          "name": "ArtArtist",
          "type": "string"
        },
        {
          "name": "ArtExhibitHist",
          "type": "string"
        },
        {
          "name": "OwnerProv",
          "type": "string"
        },
        {
          "name": "ArtForm",
          "type": "string"
        },
        {
          "name": "ArtHash",
          "type": "string"
        }
      ],
      "payable": false,
      "stateMutability": "view",
      "type": "function",
      "signature": "0xbf8b8ec7"
    },
    {
      "constant": true,
      "inputs": [],
      "name": "ArtCounting",
      "outputs": [
        {
          "name": "",
          "type": "uint256"
        }
      ],
      "payable": false,
      "stateMutability": "view",
      "type": "function",
      "signature": "0xe7b61469"
    },
    {
      "inputs": [],
      "payable": false,
      "stateMutability": "nonpayable",
      "type": "constructor",
      "signature": "constructor"
    },
    {
      "constant": false,
      "inputs": [
        {
          "name": "_owner",
          "type": "address"
        },
        {
          "name": "_ArtName",
          "type": "string"
        },
        {
          "name": "_ArtArtist",
          "type": "string"
        },
        {
          "name": "_ArtExhibitHist",
          "type": "string"
        },
        {
          "name": "_OwnerProv",
          "type": "string"
        },
        {
          "name": "_ArtForm",
          "type": "string"
        },
        {
          "name": "_ArtHash",
          "type": "string"
        }
      ],
      "name": "RegisterNewArt",
      "outputs": [],
      "payable": false,
      "stateMutability": "nonpayable",
      "type": "function",
      "signature": "0xe18a992b"
    }
  ],
  "bytecode": "0x6080604052336000806101000a81548173ffffffffffffffffffffffffffffffffffffffff021916908373ffffffffffffffffffffffffffffffffffffffff16021790555060006001553480156200005657600080fd5b50620001c973282f5e5bb5bb6936a69db96f896364881a05e1886040805190810160405280600781526020017f4976616e4e4654000000000000000000000000000000000000000000000000008152506040805190810160405280600d81526020017f49766f6e4a6f626f6e506f6e67000000000000000000000000000000000000008152506040805190810160405280600381526020017f4e494c00000000000000000000000000000000000000000000000000000000008152506040805190810160405280600d81526020017f49766f6e4a6f626f6e506f6e67000000000000000000000000000000000000008152506040805190810160405280600781526020017f4469676974616c000000000000000000000000000000000000000000000000008152506040805190810160405280600a81526020017f4142434433323133323100000000000000000000000000000000000000000000815250620001cf640100000000026401000000009004565b6200040f565b6001600081548092919060010191905055506101006040519081016040528060015481526020018873ffffffffffffffffffffffffffffffffffffffff168152602001878152602001868152602001858152602001848152602001838152602001828152506002600060015481526020019081526020016000206000820151816000015560208201518160010160006101000a81548173ffffffffffffffffffffffffffffffffffffffff021916908373ffffffffffffffffffffffffffffffffffffffff1602179055506040820151816002019080519060200190620002b892919062000360565b506060820151816003019080519060200190620002d792919062000360565b506080820151816004019080519060200190620002f692919062000360565b5060a08201518160050190805190602001906200031592919062000360565b5060c08201518160060190805190602001906200033492919062000360565b5060e08201518160070190805190602001906200035392919062000360565b5090505050505050505050565b828054600181600116156101000203166002900490600052602060002090601f016020900481019282601f10620003a357805160ff1916838001178555620003d4565b82800160010185558215620003d4579182015b82811115620003d3578251825591602001919060010190620003b6565b5b509050620003e39190620003e7565b5090565b6200040c91905b8082111562000408576000816000905550600101620003ee565b5090565b90565b610e47806200041f6000396000f3fe608060405260043610610062576000357c0100000000000000000000000000000000000000000000000000000000900463ffffffff1680638da5cb5b14610067578063bf8b8ec7146100be578063e18a992b146103c8578063e7b61469146107a3575b600080fd5b34801561007357600080fd5b5061007c6107ce565b604051808273ffffffffffffffffffffffffffffffffffffffff1673ffffffffffffffffffffffffffffffffffffffff16815260200191505060405180910390f35b3480156100ca57600080fd5b506100f7600480360360208110156100e157600080fd5b81019080803590602001909291905050506107f3565b604051808981526020018873ffffffffffffffffffffffffffffffffffffffff1673ffffffffffffffffffffffffffffffffffffffff16815260200180602001806020018060200180602001806020018060200187810387528d818151815260200191508051906020019080838360005b83811015610183578082015181840152602081019050610168565b50505050905090810190601f1680156101b05780820380516001836020036101000a031916815260200191505b5087810386528c818151815260200191508051906020019080838360005b838110156101e95780820151818401526020810190506101ce565b50505050905090810190601f1680156102165780820380516001836020036101000a031916815260200191505b5087810385528b818151815260200191508051906020019080838360005b8381101561024f578082015181840152602081019050610234565b50505050905090810190601f16801561027c5780820380516001836020036101000a031916815260200191505b5087810384528a818151815260200191508051906020019080838360005b838110156102b557808201518184015260208101905061029a565b50505050905090810190601f1680156102e25780820380516001836020036101000a031916815260200191505b50878103835289818151815260200191508051906020019080838360005b8381101561031b578082015181840152602081019050610300565b50505050905090810190601f1680156103485780820380516001836020036101000a031916815260200191505b50878103825288818151815260200191508051906020019080838360005b83811015610381578082015181840152602081019050610366565b50505050905090810190601f1680156103ae5780820380516001836020036101000a031916815260200191505b509e50505050505050505050505050505060405180910390f35b3480156103d457600080fd5b506107a1600480360360e08110156103eb57600080fd5b81019080803573ffffffffffffffffffffffffffffffffffffffff1690602001909291908035906020019064010000000081111561042857600080fd5b82018360208201111561043a57600080fd5b8035906020019184600183028401116401000000008311171561045c57600080fd5b91908080601f016020809104026020016040519081016040528093929190818152602001838380828437600081840152601f19601f820116905080830192505050505050509192919290803590602001906401000000008111156104bf57600080fd5b8201836020820111156104d157600080fd5b803590602001918460018302840111640100000000831117156104f357600080fd5b91908080601f016020809104026020016040519081016040528093929190818152602001838380828437600081840152601f19601f8201169050808301925050505050505091929192908035906020019064010000000081111561055657600080fd5b82018360208201111561056857600080fd5b8035906020019184600183028401116401000000008311171561058a57600080fd5b91908080601f016020809104026020016040519081016040528093929190818152602001838380828437600081840152601f19601f820116905080830192505050505050509192919290803590602001906401000000008111156105ed57600080fd5b8201836020820111156105ff57600080fd5b8035906020019184600183028401116401000000008311171561062157600080fd5b91908080601f016020809104026020016040519081016040528093929190818152602001838380828437600081840152601f19601f8201169050808301925050505050505091929192908035906020019064010000000081111561068457600080fd5b82018360208201111561069657600080fd5b803590602001918460018302840111640100000000831117156106b857600080fd5b91908080601f016020809104026020016040519081016040528093929190818152602001838380828437600081840152601f19601f8201169050808301925050505050505091929192908035906020019064010000000081111561071b57600080fd5b82018360208201111561072d57600080fd5b8035906020019184600183028401116401000000008311171561074f57600080fd5b91908080601f016020809104026020016040519081016040528093929190818152602001838380828437600081840152601f19601f820116905080830192505050505050509192919290505050610beb565b005b3480156107af57600080fd5b506107b8610d70565b6040518082815260200191505060405180910390f35b6000809054906101000a900473ffffffffffffffffffffffffffffffffffffffff1681565b60026020528060005260406000206000915090508060000154908060010160009054906101000a900473ffffffffffffffffffffffffffffffffffffffff1690806002018054600181600116156101000203166002900480601f0160208091040260200160405190810160405280929190818152602001828054600181600116156101000203166002900480156108cb5780601f106108a0576101008083540402835291602001916108cb565b820191906000526020600020905b8154815290600101906020018083116108ae57829003601f168201915b505050505090806003018054600181600116156101000203166002900480601f0160208091040260200160405190810160405280929190818152602001828054600181600116156101000203166002900480156109695780601f1061093e57610100808354040283529160200191610969565b820191906000526020600020905b81548152906001019060200180831161094c57829003601f168201915b505050505090806004018054600181600116156101000203166002900480601f016020809104026020016040519081016040528092919081815260200182805460018160011615610100020316600290048015610a075780601f106109dc57610100808354040283529160200191610a07565b820191906000526020600020905b8154815290600101906020018083116109ea57829003601f168201915b505050505090806005018054600181600116156101000203166002900480601f016020809104026020016040519081016040528092919081815260200182805460018160011615610100020316600290048015610aa55780601f10610a7a57610100808354040283529160200191610aa5565b820191906000526020600020905b815481529060010190602001808311610a8857829003601f168201915b505050505090806006018054600181600116156101000203166002900480601f016020809104026020016040519081016040528092919081815260200182805460018160011615610100020316600290048015610b435780601f10610b1857610100808354040283529160200191610b43565b820191906000526020600020905b815481529060010190602001808311610b2657829003601f168201915b505050505090806007018054600181600116156101000203166002900480601f016020809104026020016040519081016040528092919081815260200182805460018160011615610100020316600290048015610be15780601f10610bb657610100808354040283529160200191610be1565b820191906000526020600020905b815481529060010190602001808311610bc457829003601f168201915b5050505050905088565b6001600081548092919060010191905055506101006040519081016040528060015481526020018873ffffffffffffffffffffffffffffffffffffffff168152602001878152602001868152602001858152602001848152602001838152602001828152506002600060015481526020019081526020016000206000820151816000015560208201518160010160006101000a81548173ffffffffffffffffffffffffffffffffffffffff021916908373ffffffffffffffffffffffffffffffffffffffff1602179055506040820151816002019080519060200190610cd2929190610d76565b506060820151816003019080519060200190610cef929190610d76565b506080820151816004019080519060200190610d0c929190610d76565b5060a0820151816005019080519060200190610d29929190610d76565b5060c0820151816006019080519060200190610d46929190610d76565b5060e0820151816007019080519060200190610d63929190610d76565b5090505050505050505050565b60015481565b828054600181600116156101000203166002900490600052602060002090601f016020900481019282601f10610db757805160ff1916838001178555610de5565b82800160010185558215610de5579182015b82811115610de4578251825591602001919060010190610dc9565b5b509050610df29190610df6565b5090565b610e1891905b80821115610e14576000816000905550600101610dfc565b5090565b9056fea165627a7a723058208a3c486efa88ac3b274e8c8dabbf797c8ef66cadadc04f36ba6c3ce4995428c60029",
  "source": "pragma solidity >=0.4.22 <0.9.0;\r\n\r\n\r\ncontract ArtRegisterations {\r\n    address public owner = msg.sender;\r\n    uint public ArtCounting = 0;\r\n\r\n    struct ArtInfo{\r\n\r\n    uint ArtCount;\r\n    address owner;\r\n    string ArtName;\r\n    string ArtArtist;\r\n    string ArtExhibitHist;\r\n    string OwnerProv;\r\n    string ArtForm;\r\n    string ArtHash;\r\n    \r\n    \r\n    }\r\n\r\n    mapping(uint => ArtInfo) public ArtRegisterationList;\r\n    \r\n    constructor() public {\r\n        RegisterNewArt(0x282F5e5bB5Bb6936A69db96f896364881a05e188,\"IvanNFT\", \"IvonJobonPong\", \"NIL\", \"IvonJobonPong\", \"Digital\",\"ABCD321321\");\r\n    }\r\n\r\n    function RegisterNewArt(address _owner,string memory _ArtName, string memory _ArtArtist, string memory _ArtExhibitHist,string memory _OwnerProv,string memory _ArtForm,string memory _ArtHash) public{\r\n        ArtCounting ++;\r\n        ArtRegisterationList[ArtCounting] = ArtInfo(ArtCounting,_owner,_ArtName,_ArtArtist,_ArtExhibitHist,_OwnerProv,_ArtForm,_ArtHash);\r\n    }\r\n    \r\n    \r\n\r\n}\r\n",
  "sourcePath": "C:/Users/ivanp/Documents/Blockchain_dApps/Art_Ownership_dApp_Project/Draft1/contracts/ArtRegistration.sol",
  "compiler": {
    "name": "solc",
    "version": "0.5.0+commit.1d4f565a.Emscripten.clang"
  },
  "schemaVersion": "3.0.1",
  "updatedAt": "2022-01-29T10:49:50.775Z",
  "devdoc": {
    "methods": {}
  },
  "userdoc": {
    "methods": {}
  }
}